S01C00006D6166642D61746D6567612D6669726D776172652E737265634A
S11300000C9436000C9453000C9453000C9453003D
S11300100C9453000C9453000C9453000C94530010
S11300200C9453000C9453000C9453000C94530000
S11300300C9453000C9453000C9453000C945300F0
S11300400C9453000C9453000C9453000C945300E0
S11300500C9453000C9453000C9453000C945300D0
S11300600C9453000C945300C700CE0011241FBEFF
S1130070CFEFD8E0DEBFCDBF21E0A0E0B1E001C00A
S11300801D92A13DB207E1F710E0C5E3D0E004C042
S11300902197FE010E94D500C433D107C9F70E94FD
S11300A0C6000C94DB000C940000019709F06DC0AD
S11300B06F3F7F4F09F069C0E0E0F1E011821082E8
S11300C01382128215821482178216821186108678
S11300D0138612861586148617861686118A108A48
S11300E0138A128A158A148A178A168A118E108E18
S11300F0138E128E158E148E178E168E11A210A2C8
S113010013A212A215A214A217A216A211A610A637
S113011080ED91E093A782A714A615A616A613AAAC
S113012012AA15AA14AA8FEF9FEF97AB86AB91AFD3
S113013080AF83E080933A0113AE14AE15AE16AED1
S11301401092BF0180E8EFE3F1E0DF011D928A9590
S1130150E9F71092C2011092C3011092C4011092E7
S1130160C5011092C6011092C7011092C8011092E5
S1130170C9011092CA011092CB011092CC011092C5
S1130180CD011092CE011092CF010895FFCF6FEFF1
S11301907FEF81E090E00E94550008956FEF7FEFBC
S11301A080E090E00E9455000895EE0FFF1F059037
S11301B0F491E02D099410E0C5E3D0E004C0FE0101
S11301C00E94D5002196C633D107C9F7F894FFCF12
S9030000FC
